{
  "abi": [
    {
      "inputs": [],
      "stateMutability": "nonpayable",
      "type": "constructor"
    },
    {
      "inputs": [],
      "name": "AllNFTsMinted",
      "type": "error"
    },
    {
      "inputs": [],
      "name": "MintingPeriodOver",
      "type": "error"
    },
    {
      "anonymous": false,
      "inputs": [
        {
          "indexed": true,
          "internalType": "address",
          "name": "owner",
          "type": "address"
        },
        {
          "indexed": true,
          "internalType": "address",
          "name": "spender",
          "type": "address"
        },
        {
          "indexed": true,
          "internalType": "uint256",
          "name": "id",
          "type": "uint256"
        }
      ],
      "name": "Approval",
      "type": "event"
    },
    {
      "anonymous": false,
      "inputs": [
        {
          "indexed": true,
          "internalType": "address",
          "name": "owner",
          "type": "address"
        },
        {
          "indexed": true,
          "internalType": "address",
          "name": "operator",
          "type": "address"
        },
        {
          "indexed": false,
          "internalType": "bool",
          "name": "approved",
          "type": "bool"
        }
      ],
      "name": "ApprovalForAll",
      "type": "event"
    },
    {
      "anonymous": false,
      "inputs": [
        {
          "indexed": true,
          "internalType": "address",
          "name": "user",
          "type": "address"
        },
        {
          "indexed": true,
          "internalType": "address",
          "name": "newOwner",
          "type": "address"
        }
      ],
      "name": "OwnershipTransferred",
      "type": "event"
    },
    {
      "anonymous": false,
      "inputs": [
        {
          "indexed": true,
          "internalType": "address",
          "name": "from",
          "type": "address"
        },
        {
          "indexed": true,
          "internalType": "address",
          "name": "to",
          "type": "address"
        },
        {
          "indexed": true,
          "internalType": "uint256",
          "name": "id",
          "type": "uint256"
        }
      ],
      "name": "Transfer",
      "type": "event"
    },
    {
      "inputs": [
        {
          "internalType": "address",
          "name": "spender",
          "type": "address"
        },
        {
          "internalType": "uint256",
          "name": "id",
          "type": "uint256"
        }
      ],
      "name": "approve",
      "outputs": [],
      "stateMutability": "nonpayable",
      "type": "function"
    },
    {
      "inputs": [
        {
          "internalType": "address",
          "name": "owner",
          "type": "address"
        }
      ],
      "name": "balanceOf",
      "outputs": [
        {
          "internalType": "uint256",
          "name": "",
          "type": "uint256"
        }
      ],
      "stateMutability": "view",
      "type": "function"
    },
    {
      "inputs": [],
      "name": "baseURI",
      "outputs": [
        {
          "internalType": "string",
          "name": "",
          "type": "string"
        }
      ],
      "stateMutability": "view",
      "type": "function"
    },
    {
      "inputs": [
        {
          "internalType": "uint256",
          "name": "",
          "type": "uint256"
        }
      ],
      "name": "getApproved",
      "outputs": [
        {
          "internalType": "address",
          "name": "",
          "type": "address"
        }
      ],
      "stateMutability": "view",
      "type": "function"
    },
    {
      "inputs": [
        {
          "internalType": "address",
          "name": "",
          "type": "address"
        },
        {
          "internalType": "address",
          "name": "",
          "type": "address"
        }
      ],
      "name": "isApprovedForAll",
      "outputs": [
        {
          "internalType": "bool",
          "name": "",
          "type": "bool"
        }
      ],
      "stateMutability": "view",
      "type": "function"
    },
    {
      "inputs": [
        {
          "internalType": "string",
          "name": "query",
          "type": "string"
        }
      ],
      "name": "mint",
      "outputs": [],
      "stateMutability": "nonpayable",
      "type": "function"
    },
    {
      "inputs": [],
      "name": "name",
      "outputs": [
        {
          "internalType": "string",
          "name": "",
          "type": "string"
        }
      ],
      "stateMutability": "view",
      "type": "function"
    },
    {
      "inputs": [],
      "name": "owner",
      "outputs": [
        {
          "internalType": "address",
          "name": "",
          "type": "address"
        }
      ],
      "stateMutability": "view",
      "type": "function"
    },
    {
      "inputs": [
        {
          "internalType": "uint256",
          "name": "id",
          "type": "uint256"
        }
      ],
      "name": "ownerOf",
      "outputs": [
        {
          "internalType": "address",
          "name": "owner",
          "type": "address"
        }
      ],
      "stateMutability": "view",
      "type": "function"
    },
    {
      "inputs": [
        {
          "internalType": "uint256",
          "name": "",
          "type": "uint256"
        }
      ],
      "name": "queries",
      "outputs": [
        {
          "internalType": "string",
          "name": "",
          "type": "string"
        }
      ],
      "stateMutability": "view",
      "type": "function"
    },
    {
      "inputs": [
        {
          "internalType": "address",
          "name": "from",
          "type": "address"
        },
        {
          "internalType": "address",
          "name": "to",
          "type": "address"
        },
        {
          "internalType": "uint256",
          "name": "id",
          "type": "uint256"
        }
      ],
      "name": "safeTransferFrom",
      "outputs": [],
      "stateMutability": "nonpayable",
      "type": "function"
    },
    {
      "inputs": [
        {
          "internalType": "address",
          "name": "from",
          "type": "address"
        },
        {
          "internalType": "address",
          "name": "to",
          "type": "address"
        },
        {
          "internalType": "uint256",
          "name": "id",
          "type": "uint256"
        },
        {
          "internalType": "bytes",
          "name": "data",
          "type": "bytes"
        }
      ],
      "name": "safeTransferFrom",
      "outputs": [],
      "stateMutability": "nonpayable",
      "type": "function"
    },
    {
      "inputs": [
        {
          "internalType": "address",
          "name": "operator",
          "type": "address"
        },
        {
          "internalType": "bool",
          "name": "approved",
          "type": "bool"
        }
      ],
      "name": "setApprovalForAll",
      "outputs": [],
      "stateMutability": "nonpayable",
      "type": "function"
    },
    {
      "inputs": [
        {
          "internalType": "string",
          "name": "_baseURI",
          "type": "string"
        }
      ],
      "name": "setBaseURI",
      "outputs": [],
      "stateMutability": "nonpayable",
      "type": "function"
    },
    {
      "inputs": [
        {
          "internalType": "bytes4",
          "name": "interfaceId",
          "type": "bytes4"
        }
      ],
      "name": "supportsInterface",
      "outputs": [
        {
          "internalType": "bool",
          "name": "",
          "type": "bool"
        }
      ],
      "stateMutability": "view",
      "type": "function"
    },
    {
      "inputs": [],
      "name": "symbol",
      "outputs": [
        {
          "internalType": "string",
          "name": "",
          "type": "string"
        }
      ],
      "stateMutability": "view",
      "type": "function"
    },
    {
      "inputs": [],
      "name": "tokenID",
      "outputs": [
        {
          "internalType": "uint256",
          "name": "",
          "type": "uint256"
        }
      ],
      "stateMutability": "view",
      "type": "function"
    },
    {
      "inputs": [
        {
          "internalType": "uint256",
          "name": "_tokenID",
          "type": "uint256"
        }
      ],
      "name": "tokenURI",
      "outputs": [
        {
          "internalType": "string",
          "name": "",
          "type": "string"
        }
      ],
      "stateMutability": "view",
      "type": "function"
    },
    {
      "inputs": [
        {
          "internalType": "address",
          "name": "from",
          "type": "address"
        },
        {
          "internalType": "address",
          "name": "to",
          "type": "address"
        },
        {
          "internalType": "uint256",
          "name": "id",
          "type": "uint256"
        }
      ],
      "name": "transferFrom",
      "outputs": [],
      "stateMutability": "nonpayable",
      "type": "function"
    },
    {
      "inputs": [
        {
          "internalType": "address",
          "name": "newOwner",
          "type": "address"
        }
      ],
      "name": "transferOwnership",
      "outputs": [],
      "stateMutability": "nonpayable",
      "type": "function"
    },
    {
      "inputs": [],
      "name": "withdrawWTAO",
      "outputs": [],
      "stateMutability": "nonpayable",
      "type": "function"
    }
  ],
  "bytecode": {
    "object": "0x60a06040523480156200001157600080fd5b5073b95777719ae59ea47a99e744afa59cdcf1c410a16040518060400160405280600881526020016727232a32b739b7b960c11b8152506040518060400160405280600881526020016727232a22a729a7a960c11b81525081600090816200007a919062000187565b50600162000089828262000187565b5050600680546001600160a01b0319166001600160a01b0384169081179091556040519091506000907f8be0079c531659141344cd1fd0a4f28419497f9722a3daafe3b4186f6b6457e0908290a3504260805262000253565b634e487b7160e01b600052604160045260246000fd5b600181811c908216806200010d57607f821691505b6020821081036200012e57634e487b7160e01b600052602260045260246000fd5b50919050565b601f8211156200018257600081815260208120601f850160051c810160208610156200015d5750805b601f850160051c820191505b818110156200017e5782815560010162000169565b5050505b505050565b81516001600160401b03811115620001a357620001a3620000e2565b620001bb81620001b48454620000f8565b8462000134565b602080601f831160018114620001f35760008415620001da5750858301515b600019600386901b1c1916600185901b1785556200017e565b600085815260208120601f198616915b82811015620002245788860151825594840194600190910190840162000203565b5085821015620002435787850151600019600388901b60f8161c191681555b5050505050600190811b01905550565b608051611f436200026f60003960006110750152611f436000f3fe608060405234801561001057600080fd5b50600436106101775760003560e01c806370a08231116100d8578063ab9c67ad1161008c578063d85d3d2711610066578063d85d3d2714610323578063e985e9c514610336578063f2fde38b1461036457600080fd5b8063ab9c67ad146102ea578063b88d4fde146102fd578063c87b56dd1461031057600080fd5b806395d89b41116100bd57806395d89b41146102c6578063a22cb465146102ce578063a5c42ef1146102e157600080fd5b806370a08231146102855780638da5cb5b146102a657600080fd5b806342842e0e1161012f5780636352211e116101145780636352211e1461026257806367675dcc146102755780636c0360eb1461027d57600080fd5b806342842e0e1461023c57806355f804b31461024f57600080fd5b8063081812fc11610160578063081812fc146101b9578063095ea7b31461021457806323b872dd1461022957600080fd5b806301ffc9a71461017c57806306fdde03146101a4575b600080fd5b61018f61018a366004611680565b610377565b60405190151581526020015b60405180910390f35b6101ac61045c565b60405161019b91906116c8565b6101ef6101c7366004611719565b60046020526000908152604090205473ffffffffffffffffffffffffffffffffffffffff1681565b60405173ffffffffffffffffffffffffffffffffffffffff909116815260200161019b565b610227610222366004611756565b6104ea565b005b610227610237366004611780565b610639565b61022761024a366004611780565b610900565b61022761025d3660046117eb565b610a6a565b6101ef610270366004611719565b610afb565b610227610b8c565b6101ac610d42565b6102986102933660046118ba565b610d4f565b60405190815260200161019b565b6006546101ef9073ffffffffffffffffffffffffffffffffffffffff1681565b6101ac610df7565b6102276102dc3660046118e3565b610e04565b61029860075481565b6101ac6102f8366004611719565b610e9b565b61022761030b366004611963565b610eb4565b6101ac61031e366004611719565b61100e565b6102276103313660046119d2565b61106c565b61018f610344366004611a14565b600560209081526000928352604080842090915290825290205460ff1681565b6102276103723660046118ba565b611201565b60007f01ffc9a7000000000000000000000000000000000000000000000000000000007fffffffff000000000000000000000000000000000000000000000000000000008316148061040a57507f80ac58cd000000000000000000000000000000000000000000000000000000007fffffffff000000000000000000000000000000000000000000000000000000008316145b8061045657507f5b5e139f000000000000000000000000000000000000000000000000000000007fffffffff000000000000000000000000000000000000000000000000000000008316145b92915050565b6000805461046990611a47565b80601f016020809104026020016040519081016040528092919081815260200182805461049590611a47565b80156104e25780601f106104b7576101008083540402835291602001916104e2565b820191906000526020600020905b8154815290600101906020018083116104c557829003601f168201915b505050505081565b60008181526002602052604090205473ffffffffffffffffffffffffffffffffffffffff163381148061054d575073ffffffffffffffffffffffffffffffffffffffff8116600090815260056020908152604080832033845290915290205460ff165b6105b8576040517f08c379a000000000000000000000000000000000000000000000000000000000815260206004820152600e60248201527f4e4f545f415554484f52495a454400000000000000000000000000000000000060448201526064015b60405180910390fd5b60008281526004602052604080822080547fffffffffffffffffffffffff00000000000000000000000000000000000000001673ffffffffffffffffffffffffffffffffffffffff87811691821790925591518593918516917f8c5be1e5ebec7d5bd14f71427d1e84f3dd0314c0f7b2291e5b200ac8c7c3b92591a4505050565b60008181526002602052604090205473ffffffffffffffffffffffffffffffffffffffff8481169116146106c9576040517f08c379a000000000000000000000000000000000000000000000000000000000815260206004820152600a60248201527f57524f4e475f46524f4d0000000000000000000000000000000000000000000060448201526064016105af565b73ffffffffffffffffffffffffffffffffffffffff8216610746576040517f08c379a000000000000000000000000000000000000000000000000000000000815260206004820152601160248201527f494e56414c49445f524543495049454e5400000000000000000000000000000060448201526064016105af565b3373ffffffffffffffffffffffffffffffffffffffff8416148061079a575073ffffffffffffffffffffffffffffffffffffffff8316600090815260056020908152604080832033845290915290205460ff165b806107c8575060008181526004602052604090205473ffffffffffffffffffffffffffffffffffffffff1633145b61082e576040517f08c379a000000000000000000000000000000000000000000000000000000000815260206004820152600e60248201527f4e4f545f415554484f52495a454400000000000000000000000000000000000060448201526064016105af565b73ffffffffffffffffffffffffffffffffffffffff808416600081815260036020908152604080832080547fffffffffffffffffffffffffffffffffffffffffffffffffffffffffffffffff019055938616808352848320805460010190558583526002825284832080547fffffffffffffffffffffffff00000000000000000000000000000000000000009081168317909155600490925284832080549092169091559251849392917fddf252ad1be2c89b69c2b068fc378daa952ba7f163c4a11628f55a4df523b3ef91a4505050565b61090b838383610639565b73ffffffffffffffffffffffffffffffffffffffff82163b15806109ff57506040517f150b7a020000000000000000000000000000000000000000000000000000000080825233600483015273ffffffffffffffffffffffffffffffffffffffff858116602484015260448301849052608060648401526000608484015290919084169063150b7a029060a4016020604051808303816000875af11580156109b7573d6000803e3d6000fd5b505050506040513d601f19601f820116820180604052508101906109db9190611a9a565b7fffffffff0000000000000000000000000000000000000000000000000000000016145b610a65576040517f08c379a000000000000000000000000000000000000000000000000000000000815260206004820152601060248201527f554e534146455f524543495049454e540000000000000000000000000000000060448201526064016105af565b505050565b60065473ffffffffffffffffffffffffffffffffffffffff163314610aeb576040517f08c379a000000000000000000000000000000000000000000000000000000000815260206004820152600c60248201527f554e415554484f52495a4544000000000000000000000000000000000000000060448201526064016105af565b6008610af78282611b05565b5050565b60008181526002602052604090205473ffffffffffffffffffffffffffffffffffffffff1680610b87576040517f08c379a000000000000000000000000000000000000000000000000000000000815260206004820152600a60248201527f4e4f545f4d494e5445440000000000000000000000000000000000000000000060448201526064016105af565b919050565b60065473ffffffffffffffffffffffffffffffffffffffff163314610c0d576040517f08c379a000000000000000000000000000000000000000000000000000000000815260206004820152600c60248201527f554e415554484f52495a4544000000000000000000000000000000000000000060448201526064016105af565b6040517f70a082310000000000000000000000000000000000000000000000000000000081523060048201527377e06c9eccf2e797fd462a92b6d7642ef85b0a449063a9059cbb90339083906370a0823190602401602060405180830381865afa158015610c7f573d6000803e3d6000fd5b505050506040513d601f19601f82011682018060405250810190610ca39190611c1f565b6040517fffffffff0000000000000000000000000000000000000000000000000000000060e085901b16815273ffffffffffffffffffffffffffffffffffffffff909216600483015260248201526044016020604051808303816000875af1158015610d13573d6000803e3d6000fd5b505050506040513d601f19601f82011682018060405250810190610d379190611c38565b610d4057600080fd5b565b6008805461046990611a47565b600073ffffffffffffffffffffffffffffffffffffffff8216610dce576040517f08c379a000000000000000000000000000000000000000000000000000000000815260206004820152600c60248201527f5a45524f5f41444452455353000000000000000000000000000000000000000060448201526064016105af565b5073ffffffffffffffffffffffffffffffffffffffff1660009081526003602052604090205490565b6001805461046990611a47565b33600081815260056020908152604080832073ffffffffffffffffffffffffffffffffffffffff87168085529083529281902080547fffffffffffffffffffffffffffffffffffffffffffffffffffffffffffffff001686151590811790915590519081529192917f17307eab39ab6107e8899845ad3d59bd9653f200f220920489ca2b5937696c31910160405180910390a35050565b6009602052600090815260409020805461046990611a47565b610ebf858585610639565b73ffffffffffffffffffffffffffffffffffffffff84163b1580610fa157506040517f150b7a02000000000000000000000000000000000000000000000000000000008082529073ffffffffffffffffffffffffffffffffffffffff86169063150b7a0290610f3a9033908a90899089908990600401611c55565b6020604051808303816000875af1158015610f59573d6000803e3d6000fd5b505050506040513d601f19601f82011682018060405250810190610f7d9190611a9a565b7fffffffff0000000000000000000000000000000000000000000000000000000016145b611007576040517f08c379a000000000000000000000000000000000000000000000000000000000815260206004820152601060248201527f554e534146455f524543495049454e540000000000000000000000000000000060448201526064016105af565b5050505050565b606060006008805461101f90611a47565b90501161103b5760405180602001604052806000815250610456565b6008611046836112f3565b604051602001611057929190611cd4565b60405160208183030381529060405292915050565b611099620697807f0000000000000000000000000000000000000000000000000000000000000000611da8565b4211156110d2576040517fe1be3ef100000000000000000000000000000000000000000000000000000000815260040160405180910390fd5b6101f460075460016110e49190611da8565b111561111c576040517fe51add9900000000000000000000000000000000000000000000000000000000815260040160405180910390fd5b6040517f23b872dd000000000000000000000000000000000000000000000000000000008152336004820152306024820152633b9aca0060448201527377e06c9eccf2e797fd462a92b6d7642ef85b0a44906323b872dd906064016020604051808303816000875af1158015611196573d6000803e3d6000fd5b505050506040513d601f19601f820116820180604052508101906111ba9190611c38565b6111c357600080fd5b600780549060006111d383611dbb565b909155505060075460009081526009602052604090206111f4828483611df3565b50610af733600754611355565b60065473ffffffffffffffffffffffffffffffffffffffff163314611282576040517f08c379a000000000000000000000000000000000000000000000000000000000815260206004820152600c60248201527f554e415554484f52495a4544000000000000000000000000000000000000000060448201526064016105af565b600680547fffffffffffffffffffffffff00000000000000000000000000000000000000001673ffffffffffffffffffffffffffffffffffffffff831690811790915560405133907f8be0079c531659141344cd1fd0a4f28419497f9722a3daafe3b4186f6b6457e090600090a350565b606060a06040510180604052602081039150506000815280825b600183039250600a81066030018353600a90048061130d57508190037fffffffffffffffffffffffffffffffffffffffffffffffffffffffffffffffe0909101908152919050565b61135f82826114b6565b73ffffffffffffffffffffffffffffffffffffffff82163b158061145057506040517f150b7a0200000000000000000000000000000000000000000000000000000000808252336004830152600060248301819052604483018490526080606484015260848301529073ffffffffffffffffffffffffffffffffffffffff84169063150b7a029060a4016020604051808303816000875af1158015611408573d6000803e3d6000fd5b505050506040513d601f19601f8201168201806040525081019061142c9190611a9a565b7fffffffff0000000000000000000000000000000000000000000000000000000016145b610af7576040517f08c379a000000000000000000000000000000000000000000000000000000000815260206004820152601060248201527f554e534146455f524543495049454e540000000000000000000000000000000060448201526064016105af565b73ffffffffffffffffffffffffffffffffffffffff8216611533576040517f08c379a000000000000000000000000000000000000000000000000000000000815260206004820152601160248201527f494e56414c49445f524543495049454e5400000000000000000000000000000060448201526064016105af565b60008181526002602052604090205473ffffffffffffffffffffffffffffffffffffffff16156115bf576040517f08c379a000000000000000000000000000000000000000000000000000000000815260206004820152600e60248201527f414c52454144595f4d494e54454400000000000000000000000000000000000060448201526064016105af565b73ffffffffffffffffffffffffffffffffffffffff8216600081815260036020908152604080832080546001019055848352600290915280822080547fffffffffffffffffffffffff0000000000000000000000000000000000000000168417905551839291907fddf252ad1be2c89b69c2b068fc378daa952ba7f163c4a11628f55a4df523b3ef908290a45050565b7fffffffff000000000000000000000000000000000000000000000000000000008116811461167d57600080fd5b50565b60006020828403121561169257600080fd5b813561169d8161164f565b9392505050565b60005b838110156116bf5781810151838201526020016116a7565b50506000910152565b60208152600082518060208401526116e78160408501602087016116a4565b601f017fffffffffffffffffffffffffffffffffffffffffffffffffffffffffffffffe0169190910160400192915050565b60006020828403121561172b57600080fd5b5035919050565b803573ffffffffffffffffffffffffffffffffffffffff81168114610b8757600080fd5b6000806040838503121561176957600080fd5b61177283611732565b946020939093013593505050565b60008060006060848603121561179557600080fd5b61179e84611732565b92506117ac60208501611732565b9150604084013590509250925092565b7f4e487b7100000000000000000000000000000000000000000000000000000000600052604160045260246000fd5b6000602082840312156117fd57600080fd5b813567ffffffffffffffff8082111561181557600080fd5b818401915084601f83011261182957600080fd5b81358181111561183b5761183b6117bc565b604051601f82017fffffffffffffffffffffffffffffffffffffffffffffffffffffffffffffffe0908116603f01168101908382118183101715611881576118816117bc565b8160405282815287602084870101111561189a57600080fd5b826020860160208301376000928101602001929092525095945050505050565b6000602082840312156118cc57600080fd5b61169d82611732565b801515811461167d57600080fd5b600080604083850312156118f657600080fd5b6118ff83611732565b9150602083013561190f816118d5565b809150509250929050565b60008083601f84011261192c57600080fd5b50813567ffffffffffffffff81111561194457600080fd5b60208301915083602082850101111561195c57600080fd5b9250929050565b60008060008060006080868803121561197b57600080fd5b61198486611732565b945061199260208701611732565b935060408601359250606086013567ffffffffffffffff8111156119b557600080fd5b6119c18882890161191a565b969995985093965092949392505050565b600080602083850312156119e557600080fd5b823567ffffffffffffffff8111156119fc57600080fd5b611a088582860161191a565b90969095509350505050565b60008060408385031215611a2757600080fd5b611a3083611732565b9150611a3e60208401611732565b90509250929050565b600181811c90821680611a5b57607f821691505b602082108103611a94577f4e487b7100000000000000000000000000000000000000000000000000000000600052602260045260246000fd5b50919050565b600060208284031215611aac57600080fd5b815161169d8161164f565b601f821115610a6557600081815260208120601f850160051c81016020861015611ade5750805b601f850160051c820191505b81811015611afd57828155600101611aea565b505050505050565b815167ffffffffffffffff811115611b1f57611b1f6117bc565b611b3381611b2d8454611a47565b84611ab7565b602080601f831160018114611b865760008415611b505750858301515b7fffffffffffffffffffffffffffffffffffffffffffffffffffffffffffffffff600386901b1c1916600185901b178555611afd565b6000858152602081207fffffffffffffffffffffffffffffffffffffffffffffffffffffffffffffffe08616915b82811015611bd357888601518255948401946001909101908401611bb4565b5085821015611c0f57878501517fffffffffffffffffffffffffffffffffffffffffffffffffffffffffffffffff600388901b60f8161c191681555b5050505050600190811b01905550565b600060208284031215611c3157600080fd5b5051919050565b600060208284031215611c4a57600080fd5b815161169d816118d5565b600073ffffffffffffffffffffffffffffffffffffffff808816835280871660208401525084604083015260806060830152826080830152828460a0840137600060a0848401015260a07fffffffffffffffffffffffffffffffffffffffffffffffffffffffffffffffe0601f85011683010190509695505050505050565b6000808454611ce281611a47565b60018281168015611cfa5760018114611d2d57611d5c565b7fffffffffffffffffffffffffffffffffffffffffffffffffffffffffffffff0084168752821515830287019450611d5c565b8860005260208060002060005b85811015611d535781548a820152908401908201611d3a565b50505082870194505b505050508351611d708183602088016116a4565b01949350505050565b7f4e487b7100000000000000000000000000000000000000000000000000000000600052601160045260246000fd5b8082018082111561045657610456611d79565b60007fffffffffffffffffffffffffffffffffffffffffffffffffffffffffffffffff8203611dec57611dec611d79565b5060010190565b67ffffffffffffffff831115611e0b57611e0b6117bc565b611e1f83611e198354611a47565b83611ab7565b6000601f841160018114611e715760008515611e3b5750838201355b7fffffffffffffffffffffffffffffffffffffffffffffffffffffffffffffffff600387901b1c1916600186901b178355611007565b6000838152602090207fffffffffffffffffffffffffffffffffffffffffffffffffffffffffffffffe0861690835b82811015611ec05786850135825560209485019460019092019101611ea0565b5086821015611efb577fffffffffffffffffffffffffffffffffffffffffffffffffffffffffffffffff60f88860031b161c19848701351681555b505060018560011b018355505050505056fea2646970667358221220aa7b447b17604cbf96969af0ffa609a57dea53c1cc3140d28af369cd56df5ae864736f6c63430008130033",
    "linkReferences": {}
  },
  "methodIdentifiers": {
    "approve(address,uint256)": "095ea7b3",
    "balanceOf(address)": "70a08231",
    "baseURI()": "6c0360eb",
    "getApproved(uint256)": "081812fc",
    "isApprovedForAll(address,address)": "e985e9c5",
    "mint(string)": "d85d3d27",
    "name()": "06fdde03",
    "owner()": "8da5cb5b",
    "ownerOf(uint256)": "6352211e",
    "queries(uint256)": "ab9c67ad",
    "safeTransferFrom(address,address,uint256)": "42842e0e",
    "safeTransferFrom(address,address,uint256,bytes)": "b88d4fde",
    "setApprovalForAll(address,bool)": "a22cb465",
    "setBaseURI(string)": "55f804b3",
    "supportsInterface(bytes4)": "01ffc9a7",
    "symbol()": "95d89b41",
    "tokenID()": "a5c42ef1",
    "tokenURI(uint256)": "c87b56dd",
    "transferFrom(address,address,uint256)": "23b872dd",
    "transferOwnership(address)": "f2fde38b",
    "withdrawWTAO()": "67675dcc"
  },
  "id": 34
}